{
  "contractName": "CHEERToken",
  "abi": [
    {
      "constant": true,
      "inputs": [],
      "name": "name",
      "outputs": [
        {
          "name": "",
          "type": "string"
        }
      ],
      "payable": false,
      "stateMutability": "view",
      "type": "function",
      "signature": "0x06fdde03"
    },
    {
      "constant": false,
      "inputs": [
        {
          "name": "spender",
          "type": "address"
        },
        {
          "name": "value",
          "type": "uint256"
        }
      ],
      "name": "approve",
      "outputs": [
        {
          "name": "",
          "type": "bool"
        }
      ],
      "payable": false,
      "stateMutability": "nonpayable",
      "type": "function",
      "signature": "0x095ea7b3"
    },
    {
      "constant": true,
      "inputs": [],
      "name": "totalSupply",
      "outputs": [
        {
          "name": "",
          "type": "uint256"
        }
      ],
      "payable": false,
      "stateMutability": "view",
      "type": "function",
      "signature": "0x18160ddd"
    },
    {
      "constant": false,
      "inputs": [
        {
          "name": "from",
          "type": "address"
        },
        {
          "name": "to",
          "type": "address"
        },
        {
          "name": "value",
          "type": "uint256"
        }
      ],
      "name": "transferFrom",
      "outputs": [
        {
          "name": "",
          "type": "bool"
        }
      ],
      "payable": false,
      "stateMutability": "nonpayable",
      "type": "function",
      "signature": "0x23b872dd"
    },
    {
      "constant": true,
      "inputs": [],
      "name": "decimals",
      "outputs": [
        {
          "name": "",
          "type": "uint8"
        }
      ],
      "payable": false,
      "stateMutability": "view",
      "type": "function",
      "signature": "0x313ce567"
    },
    {
      "constant": false,
      "inputs": [
        {
          "name": "spender",
          "type": "address"
        },
        {
          "name": "addedValue",
          "type": "uint256"
        }
      ],
      "name": "increaseAllowance",
      "outputs": [
        {
          "name": "",
          "type": "bool"
        }
      ],
      "payable": false,
      "stateMutability": "nonpayable",
      "type": "function",
      "signature": "0x39509351"
    },
    {
      "constant": true,
      "inputs": [
        {
          "name": "",
          "type": "address"
        },
        {
          "name": "",
          "type": "uint256"
        }
      ],
      "name": "thanksSendMessages",
      "outputs": [
        {
          "name": "",
          "type": "uint256"
        }
      ],
      "payable": false,
      "stateMutability": "view",
      "type": "function",
      "signature": "0x4ecc8fe5"
    },
    {
      "constant": true,
      "inputs": [
        {
          "name": "owner",
          "type": "address"
        }
      ],
      "name": "balanceOf",
      "outputs": [
        {
          "name": "",
          "type": "uint256"
        }
      ],
      "payable": false,
      "stateMutability": "view",
      "type": "function",
      "signature": "0x70a08231"
    },
    {
      "constant": true,
      "inputs": [],
      "name": "symbol",
      "outputs": [
        {
          "name": "",
          "type": "string"
        }
      ],
      "payable": false,
      "stateMutability": "view",
      "type": "function",
      "signature": "0x95d89b41"
    },
    {
      "constant": true,
      "inputs": [
        {
          "name": "",
          "type": "address"
        },
        {
          "name": "",
          "type": "uint256"
        }
      ],
      "name": "sendMessages",
      "outputs": [
        {
          "name": "",
          "type": "uint256"
        }
      ],
      "payable": false,
      "stateMutability": "view",
      "type": "function",
      "signature": "0x9b85cf99"
    },
    {
      "constant": false,
      "inputs": [
        {
          "name": "spender",
          "type": "address"
        },
        {
          "name": "subtractedValue",
          "type": "uint256"
        }
      ],
      "name": "decreaseAllowance",
      "outputs": [
        {
          "name": "",
          "type": "bool"
        }
      ],
      "payable": false,
      "stateMutability": "nonpayable",
      "type": "function",
      "signature": "0xa457c2d7"
    },
    {
      "constant": true,
      "inputs": [
        {
          "name": "",
          "type": "address"
        }
      ],
      "name": "users",
      "outputs": [
        {
          "name": "",
          "type": "string"
        }
      ],
      "payable": false,
      "stateMutability": "view",
      "type": "function",
      "signature": "0xa87430ba"
    },
    {
      "constant": false,
      "inputs": [
        {
          "name": "to",
          "type": "address"
        },
        {
          "name": "value",
          "type": "uint256"
        }
      ],
      "name": "transfer",
      "outputs": [
        {
          "name": "",
          "type": "bool"
        }
      ],
      "payable": false,
      "stateMutability": "nonpayable",
      "type": "function",
      "signature": "0xa9059cbb"
    },
    {
      "constant": true,
      "inputs": [
        {
          "name": "",
          "type": "bytes16"
        }
      ],
      "name": "userMap",
      "outputs": [
        {
          "name": "",
          "type": "address"
        }
      ],
      "payable": false,
      "stateMutability": "view",
      "type": "function",
      "signature": "0xb3cf7f33"
    },
    {
      "constant": true,
      "inputs": [
        {
          "name": "",
          "type": "bytes16"
        },
        {
          "name": "",
          "type": "uint256"
        }
      ],
      "name": "tempMessages",
      "outputs": [
        {
          "name": "",
          "type": "uint256"
        }
      ],
      "payable": false,
      "stateMutability": "view",
      "type": "function",
      "signature": "0xbf77071f"
    },
    {
      "constant": true,
      "inputs": [
        {
          "name": "",
          "type": "address"
        },
        {
          "name": "",
          "type": "uint256"
        }
      ],
      "name": "recieveMessages",
      "outputs": [
        {
          "name": "",
          "type": "uint256"
        }
      ],
      "payable": false,
      "stateMutability": "view",
      "type": "function",
      "signature": "0xd02ed607"
    },
    {
      "constant": true,
      "inputs": [
        {
          "name": "owner",
          "type": "address"
        },
        {
          "name": "spender",
          "type": "address"
        }
      ],
      "name": "allowance",
      "outputs": [
        {
          "name": "",
          "type": "uint256"
        }
      ],
      "payable": false,
      "stateMutability": "view",
      "type": "function",
      "signature": "0xdd62ed3e"
    },
    {
      "constant": true,
      "inputs": [
        {
          "name": "",
          "type": "uint256"
        }
      ],
      "name": "thanksMessages",
      "outputs": [
        {
          "name": "from",
          "type": "address"
        },
        {
          "name": "to",
          "type": "address"
        },
        {
          "name": "message",
          "type": "string"
        },
        {
          "name": "hashedId",
          "type": "bytes32"
        },
        {
          "name": "timestamp",
          "type": "uint256"
        }
      ],
      "payable": false,
      "stateMutability": "view",
      "type": "function",
      "signature": "0xe18d9f6f"
    },
    {
      "constant": true,
      "inputs": [
        {
          "name": "",
          "type": "address"
        },
        {
          "name": "",
          "type": "uint256"
        }
      ],
      "name": "thanksRecieveMessages",
      "outputs": [
        {
          "name": "",
          "type": "uint256"
        }
      ],
      "payable": false,
      "stateMutability": "view",
      "type": "function",
      "signature": "0xece790a5"
    },
    {
      "constant": true,
      "inputs": [
        {
          "name": "",
          "type": "uint256"
        }
      ],
      "name": "cheerMessages",
      "outputs": [
        {
          "name": "from",
          "type": "address"
        },
        {
          "name": "to",
          "type": "address"
        },
        {
          "name": "screenName",
          "type": "string"
        },
        {
          "name": "message",
          "type": "string"
        },
        {
          "name": "hashedId",
          "type": "bytes32"
        },
        {
          "name": "timestamp",
          "type": "uint256"
        }
      ],
      "payable": false,
      "stateMutability": "view",
      "type": "function",
      "signature": "0xffcd48c1"
    },
    {
      "inputs": [
        {
          "name": "admin_address",
          "type": "address"
        }
      ],
      "payable": false,
      "stateMutability": "nonpayable",
      "type": "constructor",
      "signature": "constructor"
    },
    {
      "anonymous": false,
      "inputs": [
        {
          "indexed": true,
          "name": "from",
          "type": "address"
        },
        {
          "indexed": true,
          "name": "to",
          "type": "address"
        },
        {
          "indexed": false,
          "name": "value",
          "type": "uint256"
        }
      ],
      "name": "Transfer",
      "type": "event",
      "signature": "0xddf252ad1be2c89b69c2b068fc378daa952ba7f163c4a11628f55a4df523b3ef"
    },
    {
      "anonymous": false,
      "inputs": [
        {
          "indexed": true,
          "name": "owner",
          "type": "address"
        },
        {
          "indexed": true,
          "name": "spender",
          "type": "address"
        },
        {
          "indexed": false,
          "name": "value",
          "type": "uint256"
        }
      ],
      "name": "Approval",
      "type": "event",
      "signature": "0x8c5be1e5ebec7d5bd14f71427d1e84f3dd0314c0f7b2291e5b200ac8c7c3b925"
    },
    {
      "constant": false,
      "inputs": [
        {
          "name": "_to",
          "type": "address"
        },
        {
          "name": "_screenName",
          "type": "string"
        },
        {
          "name": "_message",
          "type": "string"
        },
        {
          "name": "_hashedId",
          "type": "bytes32"
        }
      ],
      "name": "sendMessage",
      "outputs": [],
      "payable": false,
      "stateMutability": "nonpayable",
      "type": "function",
      "signature": "0xb39755fd"
    },
    {
      "constant": true,
      "inputs": [
        {
          "name": "_addr",
          "type": "address"
        },
        {
          "name": "_index",
          "type": "uint256"
        }
      ],
      "name": "getSendMessage",
      "outputs": [
        {
          "name": "",
          "type": "string"
        },
        {
          "name": "",
          "type": "uint256"
        },
        {
          "name": "",
          "type": "string"
        }
      ],
      "payable": false,
      "stateMutability": "view",
      "type": "function",
      "signature": "0x567b542c"
    },
    {
      "constant": true,
      "inputs": [
        {
          "name": "_addr",
          "type": "address"
        },
        {
          "name": "_index",
          "type": "uint256"
        }
      ],
      "name": "getRecieveMessage",
      "outputs": [
        {
          "name": "",
          "type": "string"
        },
        {
          "name": "",
          "type": "uint256"
        },
        {
          "name": "",
          "type": "string"
        }
      ],
      "payable": false,
      "stateMutability": "view",
      "type": "function",
      "signature": "0xd9d64330"
    },
    {
      "constant": true,
      "inputs": [
        {
          "name": "_hashedId",
          "type": "bytes32"
        }
      ],
      "name": "getSingleCheerMessage",
      "outputs": [
        {
          "name": "",
          "type": "string"
        },
        {
          "name": "",
          "type": "uint256"
        },
        {
          "name": "",
          "type": "string"
        }
      ],
      "payable": false,
      "stateMutability": "view",
      "type": "function",
      "signature": "0x9794d569"
    },
    {
      "constant": false,
      "inputs": [
        {
          "name": "_thanksMessage",
          "type": "string"
        },
        {
          "name": "_amount",
          "type": "uint256"
        },
        {
          "name": "_hashedId",
          "type": "bytes32"
        }
      ],
      "name": "sendThanksMessage",
      "outputs": [],
      "payable": false,
      "stateMutability": "nonpayable",
      "type": "function",
      "signature": "0x6eb97a41"
    },
    {
      "constant": true,
      "inputs": [
        {
          "name": "_addr",
          "type": "address"
        },
        {
          "name": "_index",
          "type": "uint256"
        }
      ],
      "name": "getThanksRecieveMessage",
      "outputs": [
        {
          "name": "",
          "type": "string"
        },
        {
          "name": "",
          "type": "uint256"
        },
        {
          "name": "",
          "type": "string"
        }
      ],
      "payable": false,
      "stateMutability": "view",
      "type": "function",
      "signature": "0xde61a141"
    },
    {
      "constant": true,
      "inputs": [
        {
          "name": "_hashedId",
          "type": "bytes32"
        }
      ],
      "name": "getSingleThanksMessage",
      "outputs": [
        {
          "name": "",
          "type": "string"
        },
        {
          "name": "",
          "type": "uint256"
        },
        {
          "name": "",
          "type": "string"
        }
      ],
      "payable": false,
      "stateMutability": "view",
      "type": "function",
      "signature": "0x3c7d1050"
    },
    {
      "constant": false,
      "inputs": [
        {
          "name": "_screenName",
          "type": "string"
        }
      ],
      "name": "adduser",
      "outputs": [],
      "payable": false,
      "stateMutability": "nonpayable",
      "type": "function",
      "signature": "0x28251317"
    },
    {
      "constant": true,
      "inputs": [],
      "name": "getuser",
      "outputs": [
        {
          "name": "",
          "type": "string"
        }
      ],
      "payable": false,
      "stateMutability": "view",
      "type": "function",
      "signature": "0xcff8fd69"
    },
    {
      "constant": true,
      "inputs": [
        {
          "name": "_screenName",
          "type": "string"
        }
      ],
      "name": "finduser",
      "outputs": [
        {
          "name": "",
          "type": "address"
        }
      ],
      "payable": false,
      "stateMutability": "view",
      "type": "function",
      "signature": "0x0dfbd7b6"
    },
    {
      "constant": true,
      "inputs": [
        {
          "name": "_origin",
          "type": "string"
        },
        {
          "name": "_target",
          "type": "string"
        }
      ],
      "name": "isSameString",
      "outputs": [
        {
          "name": "",
          "type": "bool"
        }
      ],
      "payable": false,
      "stateMutability": "pure",
      "type": "function",
      "signature": "0x3668bbcf"
    }
  ],
  "bytecode": "0x60806040526040805190810160405280600a81526020017f4348454552546f6b656e00000000000000000000000000000000000000000000815250600690805190602001906200005192919062000519565b506040805190810160405280600581526020017f4348454552000000000000000000000000000000000000000000000000000000815250600790805190602001906200009f92919062000519565b506000600860006101000a81548160ff021916908360ff160217905550603c600955348015620000ce57600080fd5b506040516020806200491a8339810180604052810190808051906020019092919050505060068054600181600116156101000203166002900480601f0160208091040260200160405190810160405280929190818152602001828054600181600116156101000203166002900480156200018c5780601f1062000160576101008083540402835291602001916200018c565b820191906000526020600020905b8154815290600101906020018083116200016e57829003601f168201915b505050505060078054600181600116156101000203166002900480601f0160208091040260200160405190810160405280929190818152602001828054600181600116156101000203166002900480156200022b5780601f10620001ff576101008083540402835291602001916200022b565b820191906000526020600020905b8154815290600101906020018083116200020d57829003601f168201915b5050505050600860009054906101000a900460ff1682600390805190602001906200025892919062000519565b5081600490805190602001906200027192919062000519565b5080600560006101000a81548160ff021916908360ff160217905550505050620002af81633b9aca0062000382640100000000026401000000009004565b6040805190810160405280600c81526020017f4368656572206d61737465720000000000000000000000000000000000000000815250601160008373ffffffffffffffffffffffffffffffffffffffff1673ffffffffffffffffffffffffffffffffffffffff16815260200190815260200160002090805190602001906200033992919062000519565b5080600860016101000a81548173ffffffffffffffffffffffffffffffffffffffff021916908373ffffffffffffffffffffffffffffffffffffffff16021790555050620005c8565b600073ffffffffffffffffffffffffffffffffffffffff168273ffffffffffffffffffffffffffffffffffffffff1614151515620003bf57600080fd5b620003e481600254620004f764010000000002620041d0179091906401000000009004565b6002819055506200044b816000808573ffffffffffffffffffffffffffffffffffffffff1673ffffffffffffffffffffffffffffffffffffffff16815260200190815260200160002054620004f764010000000002620041d0179091906401000000009004565b6000808473ffffffffffffffffffffffffffffffffffffffff1673ffffffffffffffffffffffffffffffffffffffff168152602001908152602001600020819055508173ffffffffffffffffffffffffffffffffffffffff16600073ffffffffffffffffffffffffffffffffffffffff167fddf252ad1be2c89b69c2b068fc378daa952ba7f163c4a11628f55a4df523b3ef836040518082815260200191505060405180910390a35050565b60008082840190508381101515156200050f57600080fd5b8091505092915050565b828054600181600116156101000203166002900490600052602060002090601f016020900481019282601f106200055c57805160ff19168380011785556200058d565b828001600101855582156200058d579182015b828111156200058c5782518255916020019190600101906200056f565b5b5090506200059c9190620005a0565b5090565b620005c591905b80821115620005c1576000816000905550600101620005a7565b5090565b90565b61434280620005d86000396000f30060806040526004361061018b576000357c0100000000000000000000000000000000000000000000000000000000900463ffffffff16806306fdde0314610190578063095ea7b3146102205780630dfbd7b61461028557806318160ddd1461032e57806323b872dd1461035957806328251317146103de578063313ce567146104475780633668bbcf14610478578063395093511461053f5780633c7d1050146105a45780634ecc8fe5146106c1578063567b542c146107225780636eb97a411461085b57806370a08231146108dc57806395d89b41146109335780639794d569146109c35780639b85cf9914610ae0578063a457c2d714610b41578063a87430ba14610ba6578063a9059cbb14610c62578063b39755fd14610cc7578063b3cf7f3314610da4578063bf77071f14610e24578063cff8fd6914610e82578063d02ed60714610f12578063d9d6433014610f73578063dd62ed3e146110ac578063de61a14114611123578063e18d9f6f1461125c578063ece790a51461137e578063ffcd48c1146113df575b600080fd5b34801561019c57600080fd5b506101a561156d565b6040518080602001828103825283818151815260200191508051906020019080838360005b838110156101e55780820151818401526020810190506101ca565b50505050905090810190601f1680156102125780820380516001836020036101000a031916815260200191505b509250505060405180910390f35b34801561022c57600080fd5b5061026b600480360381019080803573ffffffffffffffffffffffffffffffffffffffff1690602001909291908035906020019092919050505061160f565b604051808215151515815260200191505060405180910390f35b34801561029157600080fd5b506102ec600480360381019080803590602001908201803590602001908080601f016020809104026020016040519081016040528093929190818152602001838380828437820191505050505050919291929050505061173c565b604051808273ffffffffffffffffffffffffffffffffffffffff1673ffffffffffffffffffffffffffffffffffffffff16815260200191505060405180910390f35b34801561033a57600080fd5b506103436117a7565b6040518082815260200191505060405180910390f35b34801561036557600080fd5b506103c4600480360381019080803573ffffffffffffffffffffffffffffffffffffffff169060200190929190803573ffffffffffffffffffffffffffffffffffffffff169060200190929190803590602001909291905050506117b1565b604051808215151515815260200191505060405180910390f35b3480156103ea57600080fd5b50610445600480360381019080803590602001908201803590602001908080601f01602080910402602001604051908101604052809392919081815260200183838082843782019150505050505091929192905050506119b9565b005b34801561045357600080fd5b5061045c611d6f565b604051808260ff1660ff16815260200191505060405180910390f35b34801561048457600080fd5b50610525600480360381019080803590602001908201803590602001908080601f0160208091040260200160405190810160405280939291908181526020018383808284378201915050505050509192919290803590602001908201803590602001908080601f0160208091040260200160405190810160405280939291908181526020018383808284378201915050505050509192919290505050611d86565b604051808215151515815260200191505060405180910390f35b34801561054b57600080fd5b5061058a600480360381019080803573ffffffffffffffffffffffffffffffffffffffff16906020019092919080359060200190929190505050611f37565b604051808215151515815260200191505060405180910390f35b3480156105b057600080fd5b506105d3600480360381019080803560001916906020019092919050505061216e565b604051808060200184815260200180602001838103835286818151815260200191508051906020019080838360005b8381101561061d578082015181840152602081019050610602565b50505050905090810190601f16801561064a5780820380516001836020036101000a031916815260200191505b50838103825284818151815260200191508051906020019080838360005b83811015610683578082015181840152602081019050610668565b50505050905090810190601f1680156106b05780820380516001836020036101000a031916815260200191505b509550505050505060405180910390f35b3480156106cd57600080fd5b5061070c600480360381019080803573ffffffffffffffffffffffffffffffffffffffff1690602001909291908035906020019092919050505061239a565b6040518082815260200191505060405180910390f35b34801561072e57600080fd5b5061076d600480360381019080803573ffffffffffffffffffffffffffffffffffffffff169060200190929190803590602001909291905050506123ca565b604051808060200184815260200180602001838103835286818151815260200191508051906020019080838360005b838110156107b757808201518184015260208101905061079c565b50505050905090810190601f1680156107e45780820380516001836020036101000a031916815260200191505b50838103825284818151815260200191508051906020019080838360005b8381101561081d578082015181840152602081019050610802565b50505050905090810190601f16801561084a5780820380516001836020036101000a031916815260200191505b509550505050505060405180910390f35b34801561086757600080fd5b506108da600480360381019080803590602001908201803590602001908080601f016020809104026020016040519081016040528093929190818152602001838380828437820191505050505050919291929080359060200190929190803560001916906020019092919050505061261b565b005b3480156108e857600080fd5b5061091d600480360381019080803573ffffffffffffffffffffffffffffffffffffffff1690602001909291905050506129aa565b6040518082815260200191505060405180910390f35b34801561093f57600080fd5b506109486129f2565b6040518080602001828103825283818151815260200191508051906020019080838360005b8381101561098857808201518184015260208101905061096d565b50505050905090810190601f1680156109b55780820380516001836020036101000a031916815260200191505b509250505060405180910390f35b3480156109cf57600080fd5b506109f26004803603810190808035600019169060200190929190505050612a94565b604051808060200184815260200180602001838103835286818151815260200191508051906020019080838360005b83811015610a3c578082015181840152602081019050610a21565b50505050905090810190601f168015610a695780820380516001836020036101000a031916815260200191505b50838103825284818151815260200191508051906020019080838360005b83811015610aa2578082015181840152602081019050610a87565b50505050905090810190601f168015610acf5780820380516001836020036101000a031916815260200191505b509550505050505060405180910390f35b348015610aec57600080fd5b50610b2b600480360381019080803573ffffffffffffffffffffffffffffffffffffffff16906020019092919080359060200190929190505050612cc0565b6040518082815260200191505060405180910390f35b348015610b4d57600080fd5b50610b8c600480360381019080803573ffffffffffffffffffffffffffffffffffffffff16906020019092919080359060200190929190505050612cf0565b604051808215151515815260200191505060405180910390f35b348015610bb257600080fd5b50610be7600480360381019080803573ffffffffffffffffffffffffffffffffffffffff169060200190929190505050612f27565b6040518080602001828103825283818151815260200191508051906020019080838360005b83811015610c27578082015181840152602081019050610c0c565b50505050905090810190601f168015610c545780820380516001836020036101000a031916815260200191505b509250505060405180910390f35b348015610c6e57600080fd5b50610cad600480360381019080803573ffffffffffffffffffffffffffffffffffffffff16906020019092919080359060200190929190505050612fd7565b604051808215151515815260200191505060405180910390f35b348015610cd357600080fd5b50610da2600480360381019080803573ffffffffffffffffffffffffffffffffffffffff169060200190929190803590602001908201803590602001908080601f0160208091040260200160405190810160405280939291908181526020018383808284378201915050505050509192919290803590602001908201803590602001908080601f01602080910402602001604051908101604052809392919081815260200183838082843782019150505050505091929192908035600019169060200190929190505050612fee565b005b348015610db057600080fd5b50610de260048036038101908080356fffffffffffffffffffffffffffffffff1916906020019092919050505061334c565b604051808273ffffffffffffffffffffffffffffffffffffffff1673ffffffffffffffffffffffffffffffffffffffff16815260200191505060405180910390f35b348015610e3057600080fd5b50610e6c60048036038101908080356fffffffffffffffffffffffffffffffff191690602001909291908035906020019092919050505061337f565b6040518082815260200191505060405180910390f35b348015610e8e57600080fd5b50610e976133af565b6040518080602001828103825283818151815260200191508051906020019080838360005b83811015610ed7578082015181840152602081019050610ebc565b50505050905090810190601f168015610f045780820380516001836020036101000a031916815260200191505b509250505060405180910390f35b348015610f1e57600080fd5b50610f5d600480360381019080803573ffffffffffffffffffffffffffffffffffffffff1690602001909291908035906020019092919050505061348e565b6040518082815260200191505060405180910390f35b348015610f7f57600080fd5b50610fbe600480360381019080803573ffffffffffffffffffffffffffffffffffffffff169060200190929190803590602001909291905050506134be565b604051808060200184815260200180602001838103835286818151815260200191508051906020019080838360005b83811015611008578082015181840152602081019050610fed565b50505050905090810190601f1680156110355780820380516001836020036101000a031916815260200191505b50838103825284818151815260200191508051906020019080838360005b8381101561106e578082015181840152602081019050611053565b50505050905090810190601f16801561109b5780820380516001836020036101000a031916815260200191505b509550505050505060405180910390f35b3480156110b857600080fd5b5061110d600480360381019080803573ffffffffffffffffffffffffffffffffffffffff169060200190929190803573ffffffffffffffffffffffffffffffffffffffff16906020019092919050505061376e565b6040518082815260200191505060405180910390f35b34801561112f57600080fd5b5061116e600480360381019080803573ffffffffffffffffffffffffffffffffffffffff169060200190929190803590602001909291905050506137f5565b604051808060200184815260200180602001838103835286818151815260200191508051906020019080838360005b838110156111b857808201518184015260208101905061119d565b50505050905090810190601f1680156111e55780820380516001836020036101000a031916815260200191505b50838103825284818151815260200191508051906020019080838360005b8381101561121e578082015181840152602081019050611203565b50505050905090810190601f16801561124b5780820380516001836020036101000a031916815260200191505b509550505050505060405180910390f35b34801561126857600080fd5b5061128760048036038101908080359060200190929190505050613aa5565b604051808673ffffffffffffffffffffffffffffffffffffffff1673ffffffffffffffffffffffffffffffffffffffff1681526020018573ffffffffffffffffffffffffffffffffffffffff1673ffffffffffffffffffffffffffffffffffffffff168152602001806020018460001916600019168152602001838152602001828103825285818151815260200191508051906020019080838360005b8381101561133f578082015181840152602081019050611324565b50505050905090810190601f16801561136c5780820380516001836020036101000a031916815260200191505b50965050505050505060405180910390f35b34801561138a57600080fd5b506113c9600480360381019080803573ffffffffffffffffffffffffffffffffffffffff16906020019092919080359060200190929190505050613bc2565b6040518082815260200191505060405180910390f35b3480156113eb57600080fd5b5061140a60048036038101908080359060200190929190505050613bf2565b604051808773ffffffffffffffffffffffffffffffffffffffff1673ffffffffffffffffffffffffffffffffffffffff1681526020018673ffffffffffffffffffffffffffffffffffffffff1673ffffffffffffffffffffffffffffffffffffffff16815260200180602001806020018560001916600019168152602001848152602001838103835287818151815260200191508051906020019080838360005b838110156114c65780820151818401526020810190506114ab565b50505050905090810190601f1680156114f35780820380516001836020036101000a031916815260200191505b50838103825286818151815260200191508051906020019080838360005b8381101561152c578082015181840152602081019050611511565b50505050905090810190601f1680156115595780820380516001836020036101000a031916815260200191505b509850505050505050505060405180910390f35b606060038054600181600116156101000203166002900480601f0160208091040260200160405190810160405280929190818152602001828054600181600116156101000203166002900480156116055780601f106115da57610100808354040283529160200191611605565b820191906000526020600020905b8154815290600101906020018083116115e857829003601f168201915b5050505050905090565b60008073ffffffffffffffffffffffffffffffffffffffff168373ffffffffffffffffffffffffffffffffffffffff161415151561164c57600080fd5b81600160003373ffffffffffffffffffffffffffffffffffffffff1673ffffffffffffffffffffffffffffffffffffffff16815260200190815260200160002060008573ffffffffffffffffffffffffffffffffffffffff1673ffffffffffffffffffffffffffffffffffffffff168152602001908152602001600020819055508273ffffffffffffffffffffffffffffffffffffffff163373ffffffffffffffffffffffffffffffffffffffff167f8c5be1e5ebec7d5bd14f71427d1e84f3dd0314c0f7b2291e5b200ac8c7c3b925846040518082815260200191505060405180910390a36001905092915050565b60006012600061174b84613dad565b6fffffffffffffffffffffffffffffffff19166fffffffffffffffffffffffffffffffff1916815260200190815260200160002060009054906101000a900473ffffffffffffffffffffffffffffffffffffffff169050919050565b6000600254905090565b600061184282600160008773ffffffffffffffffffffffffffffffffffffffff1673ffffffffffffffffffffffffffffffffffffffff16815260200190815260200160002060003373ffffffffffffffffffffffffffffffffffffffff1673ffffffffffffffffffffffffffffffffffffffff16815260200190815260200160002054613e8f90919063ffffffff16565b600160008673ffffffffffffffffffffffffffffffffffffffff1673ffffffffffffffffffffffffffffffffffffffff16815260200190815260200160002060003373ffffffffffffffffffffffffffffffffffffffff1673ffffffffffffffffffffffffffffffffffffffff168152602001908152602001600020819055506118cd848484613eb0565b3373ffffffffffffffffffffffffffffffffffffffff168473ffffffffffffffffffffffffffffffffffffffff167f8c5be1e5ebec7d5bd14f71427d1e84f3dd0314c0f7b2291e5b200ac8c7c3b925600160008873ffffffffffffffffffffffffffffffffffffffff1673ffffffffffffffffffffffffffffffffffffffff16815260200190815260200160002060003373ffffffffffffffffffffffffffffffffffffffff1673ffffffffffffffffffffffffffffffffffffffff168152602001908152602001600020546040518082815260200191505060405180910390a3600190509392505050565b600080611aad601160003373ffffffffffffffffffffffffffffffffffffffff1673ffffffffffffffffffffffffffffffffffffffff1681526020019081526020016000208054600181600116156101000203166002900480601f016020809104026020016040519081016040528092919081815260200182805460018160011615610100020316600290048015611a925780601f10611a6757610100808354040283529160200191611a92565b820191906000526020600020905b815481529060010190602001808311611a7557829003601f168201915b50505050506020604051908101604052806000815250611d86565b15611d6a5782601160003373ffffffffffffffffffffffffffffffffffffffff1673ffffffffffffffffffffffffffffffffffffffff1681526020019081526020016000209080519060200190611b059291906141f1565b503360126000611b1486613dad565b6fffffffffffffffffffffffffffffffff19166fffffffffffffffffffffffffffffffff1916815260200190815260200160002060006101000a81548173ffffffffffffffffffffffffffffffffffffffff021916908373ffffffffffffffffffffffffffffffffffffffff16021790555060106000611b9385613dad565b6fffffffffffffffffffffffffffffffff19166fffffffffffffffffffffffffffffffff19168152602001908152602001600020805490509150600090505b81811015611d5f5733600a60106000611bea87613dad565b6fffffffffffffffffffffffffffffffff19166fffffffffffffffffffffffffffffffff1916815260200190815260200160002083815481101515611c2b57fe5b9060005260206000200154815481101515611c4257fe5b906000526020600020906006020160010160006101000a81548173ffffffffffffffffffffffffffffffffffffffff021916908373ffffffffffffffffffffffffffffffffffffffff160217905550600d60003373ffffffffffffffffffffffffffffffffffffffff1673ffffffffffffffffffffffffffffffffffffffff16815260200190815260200160002060106000611cdd86613dad565b6fffffffffffffffffffffffffffffffff19166fffffffffffffffffffffffffffffffff1916815260200190815260200160002082815481101515611d1e57fe5b906000526020600020015490806001815401808255809150509060018203906000526020600020016000909192909190915055508080600101915050611bd2565b611d69338361407c565b5b505050565b6000600560009054906101000a900460ff16905090565b6000816040516020018082805190602001908083835b602083101515611dc15780518252602082019150602081019050602083039250611d9c565b6001836020036101000a0380198251168184511680821785525050505050509050019150506040516020818303038152906040526040518082805190602001908083835b602083101515611e2a5780518252602082019150602081019050602083039250611e05565b6001836020036101000a038019825116818451168082178552505050505050905001915050604051809103902060001916836040516020018082805190602001908083835b602083101515611e945780518252602082019150602081019050602083039250611e6f565b6001836020036101000a0380198251168184511680821785525050505050509050019150506040516020818303038152906040526040518082805190602001908083835b602083101515611efd5780518252602082019150602081019050602083039250611ed8565b6001836020036101000a03801982511681845116808217855250505050505090500191505060405180910390206000191614905092915050565b60008073ffffffffffffffffffffffffffffffffffffffff168373ffffffffffffffffffffffffffffffffffffffff1614151515611f7457600080fd5b61200382600160003373ffffffffffffffffffffffffffffffffffffffff1673ffffffffffffffffffffffffffffffffffffffff16815260200190815260200160002060008673ffffffffffffffffffffffffffffffffffffffff1673ffffffffffffffffffffffffffffffffffffffff168152602001908152602001600020546141d090919063ffffffff16565b600160003373ffffffffffffffffffffffffffffffffffffffff1673ffffffffffffffffffffffffffffffffffffffff16815260200190815260200160002060008573ffffffffffffffffffffffffffffffffffffffff1673ffffffffffffffffffffffffffffffffffffffff168152602001908152602001600020819055508273ffffffffffffffffffffffffffffffffffffffff163373ffffffffffffffffffffffffffffffffffffffff167f8c5be1e5ebec7d5bd14f71427d1e84f3dd0314c0f7b2291e5b200ac8c7c3b925600160003373ffffffffffffffffffffffffffffffffffffffff1673ffffffffffffffffffffffffffffffffffffffff16815260200190815260200160002060008773ffffffffffffffffffffffffffffffffffffffff1673ffffffffffffffffffffffffffffffffffffffff168152602001908152602001600020546040518082815260200191505060405180910390a36001905092915050565b606060006060600060146000866000191660001916815260200190815260200160002054905060116000600b838154811015156121a757fe5b906000526020600020906005020160000160009054906101000a900473ffffffffffffffffffffffffffffffffffffffff1673ffffffffffffffffffffffffffffffffffffffff1673ffffffffffffffffffffffffffffffffffffffff168152602001908152602001600020600b8281548110151561222257fe5b906000526020600020906005020160040154600b8381548110151561224357fe5b9060005260206000209060050201600201828054600181600116156101000203166002900480601f0160208091040260200160405190810160405280929190818152602001828054600181600116156101000203166002900480156122e95780601f106122be576101008083540402835291602001916122e9565b820191906000526020600020905b8154815290600101906020018083116122cc57829003601f168201915b50505050509250808054600181600116156101000203166002900480601f0160208091040260200160405190810160405280929190818152602001828054600181600116156101000203166002900480156123855780601f1061235a57610100808354040283529160200191612385565b820191906000526020600020905b81548152906001019060200180831161236857829003601f168201915b50505050509050935093509350509193909250565b600e602052816000526040600020818154811015156123b557fe5b90600052602060002001600091509150505481565b60606000606060008085600c60008973ffffffffffffffffffffffffffffffffffffffff1673ffffffffffffffffffffffffffffffffffffffff16815260200190815260200160002080549050039150600c60008873ffffffffffffffffffffffffffffffffffffffff1673ffffffffffffffffffffffffffffffffffffffff1681526020019081526020016000208281548110151561246657fe5b90600052602060002001549050600a8181548110151561248257fe5b9060005260206000209060060201600201600a828154811015156124a257fe5b906000526020600020906006020160050154600a838154811015156124c357fe5b9060005260206000209060060201600301828054600181600116156101000203166002900480601f0160208091040260200160405190810160405280929190818152602001828054600181600116156101000203166002900480156125695780601f1061253e57610100808354040283529160200191612569565b820191906000526020600020905b81548152906001019060200180831161254c57829003601f168201915b50505050509250808054600181600116156101000203166002900480601f0160208091040260200160405190810160405280929190818152602001828054600181600116156101000203166002900480156126055780601f106125da57610100808354040283529160200191612605565b820191906000526020600020905b8154815290600101906020018083116125e857829003601f168201915b5050505050905094509450945050509250925092565b600080600080339350612650600860019054906101000a900473ffffffffffffffffffffffffffffffffffffffff1687612fd7565b50600e60008573ffffffffffffffffffffffffffffffffffffffff1673ffffffffffffffffffffffffffffffffffffffff1681526020019081526020016000208054905092508291505b8583018210156129a157600a600d60008673ffffffffffffffffffffffffffffffffffffffff1673ffffffffffffffffffffffffffffffffffffffff168152602001908152602001600020838154811015156126f257fe5b906000526020600020015481548110151561270957fe5b906000526020600020906006020160000160009054906101000a900473ffffffffffffffffffffffffffffffffffffffff169050600b60a0604051908101604052808673ffffffffffffffffffffffffffffffffffffffff1681526020018373ffffffffffffffffffffffffffffffffffffffff16815260200189815260200187600019168152602001428152509080600181540180825580915050906001820390600052602060002090600502016000909192909190915060008201518160000160006101000a81548173ffffffffffffffffffffffffffffffffffffffff021916908373ffffffffffffffffffffffffffffffffffffffff16021790555060208201518160010160006101000a81548173ffffffffffffffffffffffffffffffffffffffff021916908373ffffffffffffffffffffffffffffffffffffffff160217905550604082015181600201908051906020019061286c929190614271565b5060608201518160030190600019169055608082015181600401555050506001600b805490500360146000876000191660001916815260200190815260200160002081905550600e60008573ffffffffffffffffffffffffffffffffffffffff1673ffffffffffffffffffffffffffffffffffffffff1681526020019081526020016000206001600b80549050039080600181540180825580915050906001820390600052602060002001600090919290919091505550600f60008273ffffffffffffffffffffffffffffffffffffffff1673ffffffffffffffffffffffffffffffffffffffff1681526020019081526020016000206001600b80549050039080600181540180825580915050906001820390600052602060002001600090919290919091505550818060010192505061269a565b50505050505050565b60008060008373ffffffffffffffffffffffffffffffffffffffff1673ffffffffffffffffffffffffffffffffffffffff168152602001908152602001600020549050919050565b606060048054600181600116156101000203166002900480601f016020809104026020016040519081016040528092919081815260200182805460018160011615610100020316600290048015612a8a5780601f10612a5f57610100808354040283529160200191612a8a565b820191906000526020600020905b815481529060010190602001808311612a6d57829003601f168201915b5050505050905090565b606060006060600060136000866000191660001916815260200190815260200160002054905060116000600a83815481101515612acd57fe5b906000526020600020906006020160000160009054906101000a900473ffffffffffffffffffffffffffffffffffffffff1673ffffffffffffffffffffffffffffffffffffffff1673ffffffffffffffffffffffffffffffffffffffff168152602001908152602001600020600a82815481101515612b4857fe5b906000526020600020906006020160050154600a83815481101515612b6957fe5b9060005260206000209060060201600301828054600181600116156101000203166002900480601f016020809104026020016040519081016040528092919081815260200182805460018160011615610100020316600290048015612c0f5780601f10612be457610100808354040283529160200191612c0f565b820191906000526020600020905b815481529060010190602001808311612bf257829003601f168201915b50505050509250808054600181600116156101000203166002900480601f016020809104026020016040519081016040528092919081815260200182805460018160011615610100020316600290048015612cab5780601f10612c8057610100808354040283529160200191612cab565b820191906000526020600020905b815481529060010190602001808311612c8e57829003601f168201915b50505050509050935093509350509193909250565b600c60205281600052604060002081815481101515612cdb57fe5b90600052602060002001600091509150505481565b60008073ffffffffffffffffffffffffffffffffffffffff168373ffffffffffffffffffffffffffffffffffffffff1614151515612d2d57600080fd5b612dbc82600160003373ffffffffffffffffffffffffffffffffffffffff1673ffffffffffffffffffffffffffffffffffffffff16815260200190815260200160002060008673ffffffffffffffffffffffffffffffffffffffff1673ffffffffffffffffffffffffffffffffffffffff16815260200190815260200160002054613e8f90919063ffffffff16565b600160003373ffffffffffffffffffffffffffffffffffffffff1673ffffffffffffffffffffffffffffffffffffffff16815260200190815260200160002060008573ffffffffffffffffffffffffffffffffffffffff1673ffffffffffffffffffffffffffffffffffffffff168152602001908152602001600020819055508273ffffffffffffffffffffffffffffffffffffffff163373ffffffffffffffffffffffffffffffffffffffff167f8c5be1e5ebec7d5bd14f71427d1e84f3dd0314c0f7b2291e5b200ac8c7c3b925600160003373ffffffffffffffffffffffffffffffffffffffff1673ffffffffffffffffffffffffffffffffffffffff16815260200190815260200160002060008773ffffffffffffffffffffffffffffffffffffffff1673ffffffffffffffffffffffffffffffffffffffff168152602001908152602001600020546040518082815260200191505060405180910390a36001905092915050565b60116020528060005260406000206000915090508054600181600116156101000203166002900480601f016020809104026020016040519081016040528092919081815260200182805460018160011615610100020316600290048015612fcf5780601f10612fa457610100808354040283529160200191612fcf565b820191906000526020600020905b815481529060010190602001808311612fb257829003601f168201915b505050505081565b6000612fe4338484613eb0565b6001905092915050565b6000339050612ffe81600161407c565b613009856001612fd7565b50600a60c0604051908101604052808373ffffffffffffffffffffffffffffffffffffffff1681526020018773ffffffffffffffffffffffffffffffffffffffff16815260200186815260200185815260200184600019168152602001428152509080600181540180825580915050906001820390600052602060002090600602016000909192909190915060008201518160000160006101000a81548173ffffffffffffffffffffffffffffffffffffffff021916908373ffffffffffffffffffffffffffffffffffffffff16021790555060208201518160010160006101000a81548173ffffffffffffffffffffffffffffffffffffffff021916908373ffffffffffffffffffffffffffffffffffffffff160217905550604082015181600201908051906020019061313f929190614271565b50606082015181600301908051906020019061315c929190614271565b506080820151816004019060001916905560a08201518160050155505050600c60008273ffffffffffffffffffffffffffffffffffffffff1673ffffffffffffffffffffffffffffffffffffffff1681526020019081526020016000206001600a805490500390806001815401808255809150509060018203906000526020600020016000909192909190915055506001600a805490500360136000846000191660001916815260200190815260200160002081905550739876e3e8255d1d85d960cb5fa27f004e76cc320773ffffffffffffffffffffffffffffffffffffffff168573ffffffffffffffffffffffffffffffffffffffff1614156132d3576010600061326886613dad565b6fffffffffffffffffffffffffffffffff19166fffffffffffffffffffffffffffffffff191681526020019081526020016000206001600a80549050039080600181540180825580915050906001820390600052602060002001600090919290919091505550613345565b600d60008673ffffffffffffffffffffffffffffffffffffffff1673ffffffffffffffffffffffffffffffffffffffff1681526020019081526020016000206001600a805490500390806001815401808255809150509060018203906000526020600020016000909192909190915055505b5050505050565b60126020528060005260406000206000915054906101000a900473ffffffffffffffffffffffffffffffffffffffff1681565b60106020528160005260406000208181548110151561339a57fe5b90600052602060002001600091509150505481565b6060601160003373ffffffffffffffffffffffffffffffffffffffff1673ffffffffffffffffffffffffffffffffffffffff1681526020019081526020016000208054600181600116156101000203166002900480601f0160208091040260200160405190810160405280929190818152602001828054600181600116156101000203166002900480156134845780601f1061345957610100808354040283529160200191613484565b820191906000526020600020905b81548152906001019060200180831161346757829003601f168201915b5050505050905090565b600d602052816000526040600020818154811015156134a957fe5b90600052602060002001600091509150505481565b60606000606060008085600d60008973ffffffffffffffffffffffffffffffffffffffff1673ffffffffffffffffffffffffffffffffffffffff16815260200190815260200160002080549050039150600d60008873ffffffffffffffffffffffffffffffffffffffff1673ffffffffffffffffffffffffffffffffffffffff1681526020019081526020016000208281548110151561355a57fe5b9060005260206000200154905060116000600a8381548110151561357a57fe5b906000526020600020906006020160000160009054906101000a900473ffffffffffffffffffffffffffffffffffffffff1673ffffffffffffffffffffffffffffffffffffffff1673ffffffffffffffffffffffffffffffffffffffff168152602001908152602001600020600a828154811015156135f557fe5b906000526020600020906006020160050154600a8381548110151561361657fe5b9060005260206000209060060201600301828054600181600116156101000203166002900480601f0160208091040260200160405190810160405280929190818152602001828054600181600116156101000203166002900480156136bc5780601f10613691576101008083540402835291602001916136bc565b820191906000526020600020905b81548152906001019060200180831161369f57829003601f168201915b50505050509250808054600181600116156101000203166002900480601f0160208091040260200160405190810160405280929190818152602001828054600181600116156101000203166002900480156137585780601f1061372d57610100808354040283529160200191613758565b820191906000526020600020905b81548152906001019060200180831161373b57829003601f168201915b5050505050905094509450945050509250925092565b6000600160008473ffffffffffffffffffffffffffffffffffffffff1673ffffffffffffffffffffffffffffffffffffffff16815260200190815260200160002060008373ffffffffffffffffffffffffffffffffffffffff1673ffffffffffffffffffffffffffffffffffffffff16815260200190815260200160002054905092915050565b60606000606060008085600f60008973ffffffffffffffffffffffffffffffffffffffff1673ffffffffffffffffffffffffffffffffffffffff16815260200190815260200160002080549050039150600f60008873ffffffffffffffffffffffffffffffffffffffff1673ffffffffffffffffffffffffffffffffffffffff1681526020019081526020016000208281548110151561389157fe5b9060005260206000200154905060116000600b838154811015156138b157fe5b906000526020600020906005020160000160009054906101000a900473ffffffffffffffffffffffffffffffffffffffff1673ffffffffffffffffffffffffffffffffffffffff1673ffffffffffffffffffffffffffffffffffffffff168152602001908152602001600020600b8281548110151561392c57fe5b906000526020600020906005020160040154600b8381548110151561394d57fe5b9060005260206000209060050201600201828054600181600116156101000203166002900480601f0160208091040260200160405190810160405280929190818152602001828054600181600116156101000203166002900480156139f35780601f106139c8576101008083540402835291602001916139f3565b820191906000526020600020905b8154815290600101906020018083116139d657829003601f168201915b50505050509250808054600181600116156101000203166002900480601f016020809104026020016040519081016040528092919081815260200182805460018160011615610100020316600290048015613a8f5780601f10613a6457610100808354040283529160200191613a8f565b820191906000526020600020905b815481529060010190602001808311613a7257829003601f168201915b5050505050905094509450945050509250925092565b600b81815481101515613ab457fe5b90600052602060002090600502016000915090508060000160009054906101000a900473ffffffffffffffffffffffffffffffffffffffff16908060010160009054906101000a900473ffffffffffffffffffffffffffffffffffffffff1690806002018054600181600116156101000203166002900480601f016020809104026020016040519081016040528092919081815260200182805460018160011615610100020316600290048015613bac5780601f10613b8157610100808354040283529160200191613bac565b820191906000526020600020905b815481529060010190602001808311613b8f57829003601f168201915b5050505050908060030154908060040154905085565b600f60205281600052604060002081815481101515613bdd57fe5b90600052602060002001600091509150505481565b600a81815481101515613c0157fe5b90600052602060002090600602016000915090508060000160009054906101000a900473ffffffffffffffffffffffffffffffffffffffff16908060010160009054906101000a900473ffffffffffffffffffffffffffffffffffffffff1690806002018054600181600116156101000203166002900480601f016020809104026020016040519081016040528092919081815260200182805460018160011615610100020316600290048015613cf95780601f10613cce57610100808354040283529160200191613cf9565b820191906000526020600020905b815481529060010190602001808311613cdc57829003601f168201915b505050505090806003018054600181600116156101000203166002900480601f016020809104026020016040519081016040528092919081815260200182805460018160011615610100020316600290048015613d975780601f10613d6c57610100808354040283529160200191613d97565b820191906000526020600020905b815481529060010190602001808311613d7a57829003601f168201915b5050505050908060040154908060050154905086565b6000606060008084925060009150600090505b6010811015613e71578251811015613e53578281815181101515613de057fe5b9060200101517f010000000000000000000000000000000000000000000000000000000000000090047f0100000000000000000000000000000000000000000000000000000000000000027f01000000000000000000000000000000000000000000000000000000000000009004821791505b600f811015613e6457610100820291505b8080600101915050613dc0565b81700100000000000000000000000000000000029350505050919050565b600080838311151515613ea157600080fd5b82840390508091505092915050565b600073ffffffffffffffffffffffffffffffffffffffff168273ffffffffffffffffffffffffffffffffffffffff1614151515613eec57600080fd5b613f3d816000808673ffffffffffffffffffffffffffffffffffffffff1673ffffffffffffffffffffffffffffffffffffffff16815260200190815260200160002054613e8f90919063ffffffff16565b6000808573ffffffffffffffffffffffffffffffffffffffff1673ffffffffffffffffffffffffffffffffffffffff16815260200190815260200160002081905550613fd0816000808573ffffffffffffffffffffffffffffffffffffffff1673ffffffffffffffffffffffffffffffffffffffff168152602001908152602001600020546141d090919063ffffffff16565b6000808473ffffffffffffffffffffffffffffffffffffffff1673ffffffffffffffffffffffffffffffffffffffff168152602001908152602001600020819055508173ffffffffffffffffffffffffffffffffffffffff168373ffffffffffffffffffffffffffffffffffffffff167fddf252ad1be2c89b69c2b068fc378daa952ba7f163c4a11628f55a4df523b3ef836040518082815260200191505060405180910390a3505050565b600073ffffffffffffffffffffffffffffffffffffffff168273ffffffffffffffffffffffffffffffffffffffff16141515156140b857600080fd5b6140cd816002546141d090919063ffffffff16565b600281905550614124816000808573ffffffffffffffffffffffffffffffffffffffff1673ffffffffffffffffffffffffffffffffffffffff168152602001908152602001600020546141d090919063ffffffff16565b6000808473ffffffffffffffffffffffffffffffffffffffff1673ffffffffffffffffffffffffffffffffffffffff168152602001908152602001600020819055508173ffffffffffffffffffffffffffffffffffffffff16600073ffffffffffffffffffffffffffffffffffffffff167fddf252ad1be2c89b69c2b068fc378daa952ba7f163c4a11628f55a4df523b3ef836040518082815260200191505060405180910390a35050565b60008082840190508381101515156141e757600080fd5b8091505092915050565b828054600181600116156101000203166002900490600052602060002090601f016020900481019282601f1061423257805160ff1916838001178555614260565b82800160010185558215614260579182015b8281111561425f578251825591602001919060010190614244565b5b50905061426d91906142f1565b5090565b828054600181600116156101000203166002900490600052602060002090601f016020900481019282601f106142b257805160ff19168380011785556142e0565b828001600101855582156142e0579182015b828111156142df5782518255916020019190600101906142c4565b5b5090506142ed91906142f1565b5090565b61431391905b8082111561430f5760008160009055506001016142f7565b5090565b905600a165627a7a72305820f52a5da93f041cf6c4eaf1ada8ef0f10617a34aa1057ad8f7257ea0e9474d0930029",
  "source": "pragma solidity ^0.4.24;\n\nimport \"../../openzeppelin-solidity/contracts/token/ERC20/ERC20.sol\";\nimport \"../../openzeppelin-solidity/contracts/token/ERC20/ERC20Detailed.sol\";\n\ncontract CHEERToken is ERC20, ERC20Detailed {\n\n  string private _name = 'CHEERToken';\n  string private _symbol = 'CHEER';\n  uint8 private _decimals = 0;\n  address private _admin_address;\n  uint private cheerCoolDownTime = 1 minutes;\n\n\n  struct Message {\n      address from;\n      address to;\n      string screenName;\n      string message;\n      bytes32 hashedId;\n      uint timestamp;\n  }\n  \n  struct ThanksMessage {\n      address from;\n      address to;\n      string message;\n      bytes32 hashedId;\n      uint timestamp;\n  }\n\n  Message[] public cheerMessages;\n  ThanksMessage[] public thanksMessages;\n  mapping (address => uint[]) public sendMessages;\n\n  mapping (address => uint[]) public recieveMessages;\n  mapping (address => uint[]) public thanksSendMessages; \n  mapping (address => uint[]) public thanksRecieveMessages;\n\n  mapping (bytes16 => uint[]) public tempMessages;\n\n  mapping (address => string) public users;\n  mapping (bytes16 => address) public userMap;\n\n  mapping (bytes32 => uint) cheerHashedIdPureIdMap;\n  mapping (bytes32 => uint) thanksHashedIdPureIdMap;\n  \n  function sendMessage(address _to, string memory _screenName, string memory _message, bytes32 _hashedId) public {\n    address _from = msg.sender;\n    _mint(_from,1);\n    transfer(_to, 1);\n    cheerMessages.push(Message(_from, _to,_screenName, _message, _hashedId, now));\n    sendMessages[_from].push(cheerMessages.length-1);\n    cheerHashedIdPureIdMap[_hashedId] = cheerMessages.length - 1;\n\n    if (_to == 0x9876e3e8255D1D85d960CB5fA27F004e76cC3207) {\n        tempMessages[s2b16(_screenName)].push(cheerMessages.length-1);\n    } else {\n        recieveMessages[_to].push(cheerMessages.length-1);\n    }\n  }\n\n  function getSendMessage(address _addr, uint _index) public constant returns (string, uint, string) {\n    //require(_index <= sendMessages[_addr].length);\n    uint sendIndex = sendMessages[_addr].length - _index;\n    uint messageId = sendMessages[_addr][sendIndex];\n    return (cheerMessages[messageId].screenName, cheerMessages[messageId].timestamp, cheerMessages[messageId].message);\n  }\n\n  function getRecieveMessage(address _addr, uint _index) public constant returns (string, uint, string) {\n    //require(_index <= recieveMessages[_addr].length);\n    uint recieveIndex = recieveMessages[_addr].length - _index;\n    uint messageId = recieveMessages[_addr][recieveIndex];\n    return (users[cheerMessages[messageId].from], cheerMessages[messageId].timestamp, cheerMessages[messageId].message);\n  }\n\n  function getSingleCheerMessage(bytes32 _hashedId) public constant returns (string, uint, string) {\n    uint messageId = cheerHashedIdPureIdMap[_hashedId];\n    return ( users[cheerMessages[messageId].from], cheerMessages[messageId].timestamp, cheerMessages[messageId].message);\n  }\n\n  function sendThanksMessage(string _thanksMessage, uint _amount, bytes32 _hashedId) public {\n    address _from = msg.sender;\n    transfer(_admin_address, _amount);\n    uint cursor = thanksSendMessages[_from].length;\n    for( uint i = cursor; i < cursor + _amount; i++) {\n      address _to = cheerMessages[recieveMessages[_from][i]].from;\n      thanksMessages.push(ThanksMessage(_from, _to ,_thanksMessage, _hashedId, now));\n      thanksHashedIdPureIdMap[_hashedId] = thanksMessages.length - 1;\n      thanksSendMessages[_from].push(thanksMessages.length-1);\n      thanksRecieveMessages[_to].push(thanksMessages.length-1);\n    }\n  }\n\n  function getThanksRecieveMessage(address _addr, uint _index) public constant returns (string, uint, string) {\n    //require(_index <= recieveMessages[_addr].length);\n    uint recieveIndex = thanksRecieveMessages[_addr].length - _index;\n    uint messageId = thanksRecieveMessages[_addr][recieveIndex];\n    return (users[thanksMessages[messageId].from], thanksMessages[messageId].timestamp, thanksMessages[messageId].message);\n  }\n  function getSingleThanksMessage(bytes32 _hashedId) public constant returns (string, uint, string) {\n    uint messageId = thanksHashedIdPureIdMap[_hashedId];\n    return ( users[thanksMessages[messageId].from], thanksMessages[messageId].timestamp, thanksMessages[messageId].message );\n  }\n\n  function adduser(string _screenName) public {\n    if (isSameString(users[msg.sender],\"\")) {\n      users[msg.sender] = _screenName;\n      userMap[s2b16(_screenName)] = msg.sender;\n      uint num_of_temp_mes = tempMessages[s2b16(_screenName)].length;\n      for( uint i = 0; i < num_of_temp_mes; i++ ) {\n        cheerMessages[tempMessages[s2b16(_screenName)][i]].to = msg.sender;\n        recieveMessages[msg.sender].push(tempMessages[s2b16(_screenName)][i]);\n      }\n      // will fix : transfer from contract to user\n      //_transfer(_admin_address,msg.sender,num_of_temp_mes);\n      _mint(msg.sender,num_of_temp_mes);\n    }\n  }\n\n  function getuser() public constant returns (string) {\n    return users[msg.sender];\n  }\n\n  function finduser(string _screenName) public constant returns (address ) {\n    return userMap[s2b16(_screenName)];\n  }\n\n  function s2b16(string s) internal returns (bytes16) {\n    bytes memory b = bytes(s);\n    uint r = 0;\n    for (uint i = 0; i < 16; i++) {\n      if (i < b.length) {\n        r = r | uint(b[i]);\n      }\n      if (i < 15) r = r * 256;\n    }\n    return bytes16(r);\n  }\n\n  function isSameString(string _origin, string _target) public pure returns (bool) {\n    return keccak256(abi.encodePacked(_origin)) == keccak256(abi.encodePacked(_target));\n  }\n\n  constructor (address admin_address) ERC20Detailed(_name, _symbol, _decimals) public {\n    _mint(admin_address, 1000000000); // 100,000,000CHEER\n    users[admin_address] = \"Cheer master\";\n    _admin_address = admin_address;\n  }\n\n  modifier isReadyForCheer(string _screenName) {\n    address _from = msg.sender;\n    uint[] memory myMessageIdxs = sendMessages[_from];\n    uint myLastSendMessageTime;\n\n    if( myMessageIdxs.length <= 0 ) {\n      require(true);\n      _;\n    }\n    else {\n      myLastSendMessageTime = getMyLastSendMessageTime(_screenName, myMessageIdxs);\n      require( (myLastSendMessageTime + cheerCoolDownTime <= now ), \"Cheers need to be open at 24 hours.\");\n      _;\n    }\n  }\n  \n  function getMyLastSendMessageTime(string _screenName, uint[] _myMessageIdxs) private view returns (uint) {\n    for (uint i = _myMessageIdxs.length -1; i >= 0 ; i--) {\n        if( keccak256(cheerMessages[_myMessageIdxs[i]].screenName) == keccak256(_screenName) ) {\n          return cheerMessages[_myMessageIdxs[i]].timestamp;\n        }\n        else {\n          return now - 1 days;\n        }\n    }\n  }\n\n  \n}\n",
  "sourcePath": "/Users/aram.mine/develop/cheerfor-beta/contracts/CHEERToken.sol",
  "compiler": {
    "name": "solc",
    "version": "0.4.24+commit.e67f0147.Emscripten.clang"
  },
  "schemaVersion": "3.0.2",
  "updatedAt": "2019-11-12T05:18:56.017Z",
  "devdoc": {
    "methods": {
      "allowance(address,address)": {
        "details": "Function to check the amount of tokens that an owner allowed to a spender.",
        "params": {
          "owner": "address The address which owns the funds.",
          "spender": "address The address which will spend the funds."
        },
        "return": "A uint256 specifying the amount of tokens still available for the spender."
      },
      "approve(address,uint256)": {
        "details": "Approve the passed address to spend the specified amount of tokens on behalf of msg.sender. Beware that changing an allowance with this method brings the risk that someone may use both the old and the new allowance by unfortunate transaction ordering. One possible solution to mitigate this race condition is to first reduce the spender's allowance to 0 and set the desired value afterwards: https://github.com/ethereum/EIPs/issues/20#issuecomment-263524729",
        "params": {
          "spender": "The address which will spend the funds.",
          "value": "The amount of tokens to be spent."
        }
      },
      "balanceOf(address)": {
        "details": "Gets the balance of the specified address.",
        "params": {
          "owner": "The address to query the balance of."
        },
        "return": "An uint256 representing the amount owned by the passed address."
      },
      "decimals()": {
        "return": "the number of decimals of the token."
      },
      "decreaseAllowance(address,uint256)": {
        "details": "Decrease the amount of tokens that an owner allowed to a spender. approve should be called when allowed_[_spender] == 0. To decrement allowed value is better to use this function to avoid 2 calls (and wait until the first transaction is mined) From MonolithDAO Token.sol Emits an Approval event.",
        "params": {
          "spender": "The address which will spend the funds.",
          "subtractedValue": "The amount of tokens to decrease the allowance by."
        }
      },
      "increaseAllowance(address,uint256)": {
        "details": "Increase the amount of tokens that an owner allowed to a spender. approve should be called when allowed_[_spender] == 0. To increment allowed value is better to use this function to avoid 2 calls (and wait until the first transaction is mined) From MonolithDAO Token.sol Emits an Approval event.",
        "params": {
          "addedValue": "The amount of tokens to increase the allowance by.",
          "spender": "The address which will spend the funds."
        }
      },
      "name()": {
        "return": "the name of the token."
      },
      "symbol()": {
        "return": "the symbol of the token."
      },
      "totalSupply()": {
        "details": "Total number of tokens in existence"
      },
      "transfer(address,uint256)": {
        "details": "Transfer token for a specified address",
        "params": {
          "to": "The address to transfer to.",
          "value": "The amount to be transferred."
        }
      },
      "transferFrom(address,address,uint256)": {
        "details": "Transfer tokens from one address to another. Note that while this function emits an Approval event, this is not required as per the specification, and other compliant implementations may not emit the event.",
        "params": {
          "from": "address The address which you want to send tokens from",
          "to": "address The address which you want to transfer to",
          "value": "uint256 the amount of tokens to be transferred"
        }
      }
    }
  },
  "userdoc": {
    "methods": {}
  }
}